:020000040800F2
:1000000000000220F13100084332000845320008A8
:100010009132000893320008953200080000000079
:100020000000000000000000000000004136000851
:100030009732000800000000A1360008993200083D
:1000400041320008413200084132000841320008C4
:1000500041320008413200084132000841320008B4
:1000600041320008413200084132000841320008A4
:100070004132000841320008413200084132000894
:100080004132000841320008413200084132000884
:100090004132000841320008413200084132000874
:1000A0004132000841320008413200084132000864
:1000B00019C10008413200084132000841320008ED
:1000C0004132000841320008413200084132000844
:1000D0004132000841320008413200084132000834
:1000E000413200084132000800000000413200089F
:1000F0004132000841320008413200084132000814
:100100004132000841320008413200084132000803
:1001100041320008413200084132000841320008F3
:1001200041320008413200084132000841320008E3
:1001300041320008B16A000841320008413200082B
:1001400000000000000000000000000000000000AF
:1001500041320008413200084132000841320008B3
:1001600041320008413200084132000841320008A3
:100170004132000841320008413200084132000893
:100180004132000841320008413200084132000883
:100190004132000841320008413200084132000873
:1001A0004132000841320008413200084132000863
:1001B0004132000841320008413200084132000853
:1001C0004132000841320008413200084132000843
:1001D0004132000841320008413200084132000833
:1001E0004132000841320008413200084132000823
:1001F0004132000841320008413200084132000813
:100200004132000841320008413200084132000802
:1002100041320008413200084132000841320008F2
:10022000413200084132000841320008000000005D
:10023000413200084132000800000000413200084D
:1002400041320008413200084132000841320008C2
:1002500041320008413200084132000841320008B2
:1002600041320008413200084132000841320008A2
:10027000413200084132000841320008000000000D
:1002800041320008413200084132000800000000FD
:080290000000000041320008EB
:1002A00010B5054C237833B9044B13B10448AFF3B0
:1002B00000800123237010BD980000200000000082
:1002C000D8E3000808B5034B1BB103490348AFF35B
:1002D000008008BD000000009C000020D8E300085A
:1002E00053B94AB9002908BF00281CBF4FF0FF319D
:1002F0004FF0FF3000F06EB9ADF1080C6DE904CE9F
:1003000000F006F8DDF804E0DDE9022304B07047F0
:100310002DE9F047089D04468C46002B40F0838071
:100320008A42174647D9B2FA82F242B1C2F120009E
:1003300024FA00F09140974040EA010C94404FEAC3
:100340001748230CBCFBF8F61FFA87FE08FB16C102
:1003500043EA014306FB0EF1994209D9FB1806F165
:10036000FF3080F01981994240F21681023E3B44F1
:100370005B1AA4B2B3FBF8F008FB103344EA034461
:1003800000FB0EFEA64509D93C1900F1FF3380F0B1
:100390000581A64540F2028102383C4440EA06400D
:1003A000A4EB0E0400261DB1D4400023C5E9004390
:1003B0003146BDE8F08702B9FFDEB2FA82F2002AC8
:1003C00050D1CB1B4FEA174E1FFA87F80126B3FB1B
:1003D000FEFC210C0EFB1C3341EA034108FB0CF32D
:1003E0008B4207D979180CF1FF3002D28B4200F210
:1003F000E9808446C91AA3B2B1FBFEF00EFB1011CE
:1004000043EA014408FB00F8A04507D93C1900F174
:10041000FF3302D2A04500F2D9801846A4EB0804AD
:1004200040EA0C40BFE78B4209D9002D00F0B180B3
:100430000026C5E9000130463146BDE8F087B3FA31
:1004400083F6002E4AD18B4202D3824200F2B8805A
:10045000841A61EB030101208C46002DA8D0C5E968
:10046000004CA5E7C2F1200320FA03F6974001FAF9
:1004700002F04FEA174ED9403043030CB1FBFEF6B1
:100480001FFA87F80EFB161143EA014306FB08F139
:10049000994204FA02F409D9FB1806F1FF3C80F0F6
:1004A0008D80994240F28A80023E3B445B1A81B2C1
:1004B000B3FBFEF00EFB103341EA034100FB08F3EF
:1004C0008B4207D9791800F1FF3C73D28B4271D966
:1004D00002383944CB1A40EA064678E7C6F1200CC8
:1004E00003FA06F422FA0CF31C4320FA0CF701FA83
:1004F00006F34FEA144E21FA0CF11F433B0CB1FBFB
:10050000FEF91FFA84F80EFB191143EA014109FBB9
:1005100008FA8A4502FA06F200FA06F308D96118C9
:1005200009F1FF3048D28A4546D9A9F10209214490
:10053000A1EB0A01BFB2B1FBFEF00EFB101147EABE
:10054000014700FB08F8B84507D9E71900F1FF316A
:100550002ED2B8452CD90238274440EA0940A7EBEF
:100560000807A0FB02894F45C64649461AD317D053
:100570005DB1B3EB0E0267EB010707FA0CFCF2402A
:100580004CEA0202F740C5E9002700263146BDE8E3
:10059000F0872E4628460BE70646E9E61846FDE6B4
:1005A0004345E5D2B8EB020E69EB04010138DFE701
:1005B0000846D2E760468DE78146B9E7664675E7AB
:1005C00030464AE7ACF1020C394413E702383C44A8
:1005D00024E700BF704700BF10F8012B11F8013B62
:1005E000012A28BF9A42F7D0D01A7047034613F861
:1005F000012B002AFBD1181A0138704700000000B7
:1006000001F0FF01102A2BDB10F0070F08D010F8C3
:10061000013B013A8B422DD010F0070F42B3F6D1C7
:10062000F0B441EA012141EA014122F007047FF0E0
:1006300000070023F0E80256083C85EA010586EA37
:10064000010685FA47F5A3FA87F586FA47F6A5FA73
:1006500087F68EB9EED1F0BC01F0FF0102F007027F
:1006600032B110F8013B013A83EA010313B1F8D12A
:100670000020704701387047002D06BF354603380B
:10068000073815F0010F07D1013015F4807F02BF44
:10069000013015F4C03F0130F0BC0138704700BF95
:1006A00010B54FF6FF73084C10F8012B01395A4072
:1006B00089B2D2B234F8122082EA13230029F3D18E
:1006C000D84380B210BD00BFF0E3000838B50F4B2F
:1006D0000546187808B9012038BD4FF47A730C4AE2
:1006E000B3FBF0F31068B0FBF3F000F0B7F804468A
:1006F0000028F0D10F2DEED8024629464FF0FF30EA
:1007000000F06CF8034B20461D60E5E70000002078
:10071000080000200400002010B5032000F04CF871
:1007200000F0A6FC0F49104A8B69C3F30323D35C86
:1007300003F01F03D8408B6903F00F03D35C0B4A0F
:1007400003F01F0320FA03F31360094B18600F2016
:10075000FFF7BCFF044618B90CF04EF9204610BD57
:100760000124FBE70044025899E600080C00002031
:1007700008000020034A044B11681B780B441360E7
:10078000704700BF400E002000000020014B186899
:10079000704700BF400E0020014B1868000C7047E6
:1007A0000010005C034A536823F460031843506050
:1007B000704700BF0004005807490302CA6803F4E9
:1007C000E06322F4E0621204120C134343F0BF63AF
:1007D00043F40033CB60704700ED00E0164B30B5BA
:1007E000DC68C4F30224C4F10705231D042D28BFCF
:1007F0000425062B4FF0FF338CBF033C002403FA83
:1008000005F5002803FA04F321EA050122EA0302B0
:1008100001FA04F141EA02034FEA0313DBB206DBFB
:1008200000F1604000F5614080F8003330BD00F019
:100830000F00024A1354F9E700ED00E014ED00E068
:10084000002808DB0123420900F01F0003FA00F032
:10085000014B43F82200704700E100E00138B0F19D
:10086000807F0AD2064BF021064A5860002082F8A9
:100870002310072298601A6070470120704700BF5C
:1008800010E000E000ED00E0BFF35F8F044A536A20
:1008900023F4803353620022024B5A60704700BF3A
:1008A00000ED00E090ED00E0064A40F00100064B4C
:1008B0005860536A43F480335362BFF34F8FBFF3E2
:1008C0006F8F704700ED00E090ED00E04378124A32
:1008D00010B593600178D9B14368D360C37A047BC3
:1008E0001B0643EA04730B43817A43EAC143417B0D
:1008F00043EA8143817B43EA4143C17B43EA0143AD
:10090000417A43EA0123017A43EA4103136110BDAE
:10091000D1601161FBE700BF90ED00E02DE9F74FDA
:1009200000234FF0B049DFF8C8E10A6832FA03F457
:1009300002D103B0BDE8F08F4FF0010C0CFA03FCBC
:100940001CEA020200F0BB804D684FEA4308032610
:1009500005F0030406FA08F6671EF643012F34D8A3
:10096000876807EA060ACF6807FA08F747EA0A071E
:100970008760476827EA0C0CC5F300179F4047EAD9
:100980000C074760C768022C07EA060C8F6807FA55
:1009900008F747EA0C07C76019D14FEAD30A03F0FA
:1009A000070B4FF00F0C00EB8A0A4FEA8B0BDAF8BB
:1009B00020700CFA0BFC27EA0C0C0F6907FA0BF7F6
:1009C00047EA0C07CAF8207001E0032CDAD1076867
:1009D00004FA08F415F4403F06EA070646EA04065E
:1009E00006606CD0404E03F003074FF00F0CD6F8B2
:1009F000F440BF0044F00204C6F8F440D6F8F440D6
:100A000023F0030606F1B04604F0020406F5806602
:100A10000194019C0CFA07F4D6F8088028EA040C2B
:100A2000324CA0424DD004F58064A0424BD004F576
:100A30008064A04249D004F58064A04247D004F508
:100A40008064A04245D004F58064A04243D004F500
:100A50008064A04241D004F58064A0423FD004F5F8
:100A60008064A0423DD004F58064A0420CBF0924FC
:100A70000A24BC40EF024FF0B04744EA0C04B460D3
:100A80006FEA0206D9F8004054BF344014433C607A
:100A90007C68AF0254BF34401443AF03C9F804402C
:100AA000DEF8044054BF34401443ED03CEF8044054
:100AB000DEF8004054BF34401443CEF80040013308
:100AC00033E70024D5E70124D3E70224D1E7032448
:100AD000CFE70424CDE70524CBE70624C9E70724A4
:100AE000C7E70824C5E700BF0044025800000258C9
:100AF000800000580AB1816170470904FBE70000DB
:100B000038B5104CE36813F0040FE36805D103F027
:100B10000703181A18BF012038BD23F00703184334
:100B2000E060FFF733FE054663689B0401D50020B3
:100B3000F2E7FFF72BFE401BB0F57A7FF4D90120D6
:100B4000EAE700BF00480258F8B5044608B901209A
:100B50008CE00368DF075ED423689E0700F1B18054
:100B60002368DA0627D5A84B1A69996A02F0380279
:100B7000082A07D0182A40F0098101F00302012A4F
:100B800040F004811B68DB0502D5E369802BDED1D0
:100B9000FFF702FE41F20303216A98429A4B00F2EA
:100BA000EE805A68202922F0F8420CBF42F08042C1
:100BB00042EA81625A602368190700F1298123689B
:100BC0009A0600F14A8123685D071ED58F4D2B6878
:100BD00043F480732B60FFF7D9FD06462B68DA05D6
:100BE00040F16081A368884D012B40F062812B6F3A
:100BF00043F001032B6741F28837FFF7C7FD824EB0
:100C00000546336F9B0740F17A81606A002840F007
:100C10007D8100202AE07C4B1A69996A02F0380233
:100C2000102A05D0182A0AD101F00302022A06D19F
:100C30001B689D0390D56368002B8DD187E76268A0
:100C4000B2F5803F13D11A6842F480321A60FFF780
:100C50009DFD6D4E0546336898033FF57DAFFFF768
:100C600095FD401BB0F57A7FF5D90320F8BD664DA0
:100C70002B68A2B923F480332B602B6823F48023E4
:100C80002B60FFF783FD06462B6899037FF564AF61
:100C9000FFF77CFD801BB0F57A7FF5D9E5E7B2F56B
:100CA000A02F07D143F480232B602B6843F48033BB
:100CB0002B60CCE723F480332B602B6823F4802354
:100CC000F6E7514BE1681A69986A12F0380203D0CE
:100CD000182A2BD1820729D11B685B0702D500296E
:100CE0003FF435AF484D2A6822F019020A432A60C2
:100CF000FFF74CFD06462B685F0711D5FFF74CFD4B
:100D000041F20303226998426B6822D823F47C33B2
:100D1000402A0CBF43F4003343EA02336B601FE701
:100D2000FFF734FD801B0228E5D99EE71A68A9B1B8
:100D300022F01902344D0A431A60FFF727FD0646D8
:100D40002B685807DAD4FFF721FD801B0228F7D95A
:100D50008BE723F0FE4343EA0263DFE722F0010260
:100D6000294E1A60FFF712FD0546336859077FF5D3
:100D7000F7AEFFF70BFD401B0228F6D975E7DA68DE
:100D800022F07C5242EA0162DA6014E7E2694AB377
:100D90001A681D4D42F080021A60FFF7F7FC064604
:100DA0002B68DF0511D5FFF7F7FC41F20303226A38
:100DB000984210D86B68202A23F0F8430CBF43F008
:100DC000804343EA82636B60F5E6FFF7DFFC801B3C
:100DD0000228E5D949E7EB6823F07C5343EA026334
:100DE000EB60E8E61A68084E22F080021A60FFF70E
:100DF000CDFC05463368D8057FF5DDAEFFF7C6FCB0
:100E0000401B0228F6D930E7004402580048025837
:100E10006369964D83B16B6F43F001036B67FFF716
:100E2000B5FC06466B6F9B073FF5C9AEFFF7AEFCFE
:100E3000801B0228F6D918E76B6F23F001036B675C
:100E4000FFF7A4FC06466B6F9F077FF5B8AEFFF770
:100E50009DFC801B0228F6D907E7A369834D83B167
:100E60002B6843F480532B60FFF790FC06462B68F9
:100E700098043FF5A8AEFFF789FC801B0228F6D93D
:100E8000F3E62B6823F480532B60FFF77FFC0646C4
:100E90002B6899047FF597AEFFF778FC801B02283A
:100EA000F6D9E2E6FFF772FC801B64287FF696AE67
:100EB000DBE6B3B92B6F41F2883723F001032B67D0
:100EC0002B6F23F004032B67FFF760FC06462B6FA4
:100ED00098077FF59AAEFFF759FC801BB842F6D908
:100EE000C3E6052B2B6F03D143F004032B677EE68B
:100EF00023F001032B672B6F23F004037AE6FFF73F
:100F000045FC401BB8427FF67CAEAEE6574D2B69E0
:100F100003F03803182B7AD02B68022823F0807353
:100F20002B6067D1FFF732FC06462B6899015BD432
:100F3000AB6AA26A23F47C7323F003031343E26ACF
:100F400043EA0213AB62636BA26B013B013A5B02A3
:100F500012049BB202F4FE021343226B013AC2F365
:100F600008021343E26B013A120602F0FE421343F9
:100F70002B63EB6A23F00103EB626B6BA26C23F42F
:100F80007F4323F0F80343EAC2036B63EB6A226CEE
:100F900023F00C031343EB62EB6A626C23F0020351
:100FA0001343EB62EB6A43F48033EB62EB6A43F486
:100FB0000033EB62EB6A43F48023EB62EB6A43F0AD
:100FC0000103EB622B6843F080732B60FFF7DEFBBD
:100FD000264D04462B689A013FF51BAEFFF7D6FB62
:100FE000001B0228F6D940E6FFF7D0FB801B022841
:100FF0009BD93AE6FFF7CAFB04462B689B017FF5B5
:1010000008AEFFF7C3FB001B0228F6D92DE6012826
:10101000AA6A2B6B3FF42AAE02F00301A06A814258
:101020007FF495ADC2F30512E16A8A427FF48FAD79
:10103000226BC3F30801013A91427FF488AD626BE1
:10104000C3F34621013A91427FF481ADA26BC3F311
:101050000641013A91427FF47AADE06BC3F3066337
:101060000138181A18BF012000E600BF00440258DA
:10107000484B1A6902F03802102A30B500F0868019
:10108000182A0CD0002A40F083801A68424812F0D7
:10109000200F03D01B68C3F3C103D84030BD996A49
:1010A0009D6ADA6A15F47C7FC5F305105C6BF5D098
:1010B000C4F3CC0402F0010207EE900A01F0030130
:1010C0006243B7EE006AF8EEE76A012907EE902A5C
:1010D000FAEEE97A4CD002293CD0002948D11A68AE
:1010E000920627D519682C4AC1F3C1011B6BCA406F
:1010F000C3F3080307EE102AF8EEC75A85EEA67A66
:1011000006EE903AF8EEE66A76EEA77A77EE867A01
:10111000204B67EE877A1B6BC3F34623013307EE40
:10112000103AF8EEC76A87EEA67AFCEEC77A17EE99
:10113000900AB3E71B6BC3F3080307EE103AB8EE4F
:10114000C77A77EE277A77EE867A9FED146A86EE75
:10115000267ADDE71B6BC3F3080307EE103AB8EEFF
:10116000C77A77EE277A77EE867A9FED0D6AEEE7FB
:101170001B6BC3F3080307EE103AB8EEC77A77EE9D
:10118000277A77EE867A9FED076AE0E7064885E7DB
:10119000064883E7004402580090D0030024744CB2
:1011A00020BCBE4B0024744A40787D0100093D00FC
:1011B0002DE9F0410D46044610B90120BDE8F0814B
:1011C000884A136803F00F038B42C0F093802368B2
:1011D0005F0700F19B801E070BD583496669C869CC
:1011E00000F07000864204D9CA6922F070023243CE
:1011F000CA61D8060BD57C49A669C86900F4E060CD
:10120000864204D9CA6922F4E0623243CA6199066F
:101210000BD57549E669086A00F07000864204D96A
:101220000A6A22F0700232430A629A070BD56E49AD
:10123000E668886900F00F00864204D98A6922F0C6
:101240000F0232438A61DF076ED423689E0700F1E4
:10125000A18064490A6802F00F02AA4200F2A88045
:10126000580700F1B18019070BD55F496569C86956
:1012700000F07000854204D2CA6922F070022A434D
:10128000CA61DA060BD55849A569C86900F4E0605F
:10129000854204D2CA6922F4E0622A43CA619B06ED
:1012A0000BD5514AE069116A01F07001884204D2FD
:1012B000136A23F0700303431362FFF7D9FE4A4910
:1012C0004A4A8B69C3F30323D35C03F01F03D8405E
:1012D0008B6903F00F03D35C454A03F01F0320FA28
:1012E00003F31360434B1860434BBDE8F0411868AB
:1012F000FFF7ECB9136823F00F030B431360136877
:1013000003F00F038B427FF458AF60E7364926693C
:10131000886900F0700086427FF65DAF8A6922F02E
:10132000700232438A6156E72F4BA1689A6922F412
:1013300070620A439A6162681B68022A1DD113F425
:10134000003F3FF43AAF284E41F28838336923F02A
:10135000070313433361FFF719FA074633696268DD
:1013600003F03803B3EBC20F3FF46FAFFFF70EFA91
:10137000C01B4045F2D9032020E7032A02D113F015
:10138000007FDEE7012A02D113F4807FD9E713F052
:10139000040FD6E71449E668886900F00F0086421A
:1013A000BFF457AF8A6922F00F0232438A6150E7D7
:1013B0000A6822F00F022A430A600A6802F00F024C
:1013C000AA427FF4FAAE4BE707492569886900F025
:1013D00070008542BFF447AF8A6922F070022A4349
:1013E0008A6140E7002000520044025899E6000854
:1013F0000C000020080000200400002010B50C4C58
:10140000FFF736FE0B49A369C3F30323CA5CA36944
:1014100002F01F0203F00F0320FA02F2CB5C03F08C
:101420001F0322FA03F0044B1860044B1A6010BD2E
:101430000044025899E600080C0000200800002033
:1014400008B5FFF7DBFF054B054ADB69C3F3021361
:10145000D35C03F01F03D84008BD00BF004402580E
:1014600099E6000808B5FFF7C9FF054B054ADB6997
:10147000C3F30223D35C03F01F03D84008BD00BFB1
:101480000044025899E60008F8B53A4C06460D4665
:10149000A36A03F00303032B69D0236823F080635E
:1014A0002360FFF773F9074623681A014BD4A36A38
:1014B000326823F47C3343EA0233A362B368F268F0
:1014C000013B013A5B0212049BB202F4FE02134399
:1014D0007268013AC2F3080213433269013A1206F4
:1014E00002F0FE421343A363E36A726923F0C00370
:1014F0001343E362E36AB26923F020031343E36218
:10150000E36A23F01003E362E36BF26923F47F43A1
:1015100023F0F80343EAC203E363E36A43F01003F2
:10152000E362E36AB5B943F40023E362114C236834
:1015300043F080632360FFF729F9054623681B0108
:101540000FD5002005E0FFF721F9C01B0228ABD919
:101550000320F8BD012D0CBF43F4801343F40013A6
:10156000E3E7FFF713F9401B0228E7D9F0E7012072
:10157000EFE700BF00440258F8B53A4C06460D4666
:10158000A36A03F00303032B69D0236823F080537D
:101590002360FFF7FBF8074623689A004BD4A36A41
:1015A000326823F07C7343EA0253A362B368F268A3
:1015B000013B013A5B0212049BB202F4FE021343A8
:1015C0007268013AC2F3080213433269013A120603
:1015D00002F0FE4213432364E36A726923F440631A
:1015E0001343E362E36AB26923F400731343E362D3
:1015F000E36A23F48073E362636CF26923F47F434C
:1016000023F0F80343EAC2036364E36A43F480739C
:10161000E362E36AB5B943F48003E362114C2368E3
:1016200043F080532360FFF7B1F8054623689B0021
:101630000FD5002005E0FFF7A9F8C01B0228ABD9A1
:101640000320F8BD012D0CBF43F4000343F0807369
:10165000E3E7FFF79BF8401B0228E7D9F0E70120FA
:10166000EFE700BF004402582DE9F843066805463D
:1016700016F0006609D0436EB3F5001F2ED013D8C4
:10168000F3B1B3F5801F21D001262B68DC0540F1B2
:10169000EA806B6D042B00F2E580DFE813F0240094
:1016A0002B00DD0029002900B3F5401FECD1B34A1F
:1016B0000026696E136D23F440130B431365E4E7B2
:1016C000AE4AD36A43F40033D362F0E70221043018
:1016D000FFF7DAFE06460028D7D1E8E702212430DA
:1016E000FFF74AFFF6E7A54AD36A43F40033D36213
:1016F000344604E00021281DFFF7C6FE0446002CF6
:1017000040F0B3809D4A696D136D23F007030B43CE
:1017100013652B6898050DD5AB6D802B00F0C2804A
:1017200000F2A580002B00F0B180402B00F0B480C7
:10173000012634462B68590510D5D5F8A430B3F5E9
:10174000800F00F0D48000F2B580002B00F0C38041
:10175000B3F5001F00F0C580012634462B681A053A
:1017600010D5D5F8A830B3F1007F00F0E58000F285
:10177000C680002B00F0D480B3F1807F00F0D680CB
:10178000012634462B689B010DD5AB6C202B00F055
:10179000ED8000F2D980002B00F0D980102B00F0F2
:1017A000DF80012634462B68DF040FD5EB6DB3F5DF
:1017B000005F00F0018100F2E380002B00F0F08078
:1017C000B3F5805F00F0F280012634462B68980460
:1017D0000FD52B6EB3F5003F00F00E8100F2F480C0
:1017E000002B00F0FA80B3F5803F00F0FF80012667
:1017F00034462B68590410D5D5F8AC30B3F1005FEE
:1018000000F01B8100F20081002B00F00681B3F193
:10181000805F00F00C81012634462B681A040DD538
:10182000EB6EB3F1805F00F01081B3F1005F00F068
:101830001A81002B00F00E81012634462B68DB0153
:1018400040F127816B6C032B00F26781DFE813F016
:10185000180113015F011801002105F12400FFF7B1
:101860008BFE4BE70126344653E7264651E7C02B53
:1018700003D0B3F5807F7FF45BAFCCB93F4AA96D4D
:10188000136D23F4E0730B43136553E73B4AD36AAC
:1018900043F40033D362F0E70021281DFFF7F4FD85
:1018A0000446EAE7002105F12400FFF765FEF7E7AB
:1018B00026463FE7B3F5C00F03D0B3F5000F7FF422
:1018C0004BAFD4B92D4AD5F8A410936D23F460031F
:1018D0000B43936542E7294AD36A43F40033D3624A
:1018E000EFE70021281DFFF7CFFD0446E9E70021BF
:1018F00005F12400FFF740FEF7E726462EE7B3F197
:10190000407F03D0B3F1806F7FF43AAFD4B91B4A64
:10191000D5F8A810936D23F0E0630B43936531E78E
:10192000164AD36A43F40033D362EFE70021281D3F
:10193000FFF7AAFD0446E9E7002105F12400FFF7BF
:101940001BFEF7E726461DE7302B7FF42AAF9CB934
:101950000A4AA96CD36C23F030030B43D36422E70B
:10196000064AD36A43F40033D362F0E70221281D0C
:10197000FFF78AFD0446EAE7264614E700440258CA
:10198000B3F5405F03D0B3F5804F7FF41DAFCCB902
:10199000A24AE96D136D23F4E0430B43136515E789
:1019A0009E4AD36A43F40033D362F0E70021281D36
:1019B000FFF76AFD0446EAE7002105F12400FFF77E
:1019C000DBFDF7E7264601E723F48032B2F5802FEE
:1019D00003D0B3F5403F7FF40AAF9CB98F4A296E1C
:1019E000136D23F4E0230B43136502E70121281D47
:1019F000FFF74AFD0446F0E7012105F12400FFF757
:101A0000BBFDF7E72646F4E623F08052B2F1804FA3
:101A100003D0B3F1405F7FF4FEAEA4B97F4AD5F89E
:101A2000AC10936D23F0E0430B439365F5E6012181
:101A3000281DFFF729FD0446EFE7012105F12400E9
:101A4000FFF79AFDF7E72646E7E6744AD36A43F4C0
:101A50000033D3626CB9714AE96E136D23F04053C1
:101A60000B431365EAE60121281DFFF70DFD04462F
:101A7000F0E72646E2E6694AD36A43F40033D362CC
:101A8000002C4DD1654A696CD36C23F003030B43E2
:101A9000D3642B685F024DD5614F3B6843F480737C
:101AA0003B60FEF773FE80463B68D8053AD5002CB4
:101AB0006CD15A4BD5F8B0001A6F424012F4407FF7
:101AC0000BD01A6F196F22F4407241F480311967FC
:101AD000196F21F4803119671A67B0F5807F40D003
:101AE000D5F8B0304D4903F44072B2F5407F49D18A
:101AF00008694C4A20F47C5002EA131202430A613E
:101B0000C3F30B03454A116F0B43136712E0022125
:101B1000281DFFF7B9FC0446B2E701263446B8E7B2
:101B20002646B6E7FEF732FEA0EB08006428BBD9D4
:101B3000032634462B68DA0708D5AB6F102B3CD050
:101B400026D85BB3082B32D0012634462B689B077E
:101B500048D56B6F052B5BD8DFE803F03C37543C6E
:101B60003C3CFEF713FEDFF8B480074641F28839AB
:101B7000D8F870309907B3D4FEF708FEC01B48456B
:101B8000F6D9D5E70A6922F47C52B8E72646D1E7B0
:101B900023F00802202A01D0182BD5D19CB91F4A66
:101BA000A96F536D23F038030B435365CEE7012132
:101BB000281DFFF769FC0446F0E7012105F1240028
:101BC000FFF7DAFCF7E72646C0E70121281DFFF7FB
:101BD0005BFC0446FCB9114A696F536D23F007039F
:101BE0000B4353652B685F072ED5D5F89030052B36
:101BF00000F24081DFE813F01D00180038011D00DD
:101C00001D001D00012105F12400FFF7B5FCE0E7F0
:101C100001263446E6E72646E4E700BF00440258C2
:101C200000480258CFFFFF000121281DFFF72CFCC0
:101C30000446002C40F02181B24AD5F89010936DF3
:101C400023F007030B4393652B68980610D5D5F84E
:101C50008C30B3F1005F00F02B8100F21081002B7B
:101C600000F01681B3F1805F00F01C81012634463C
:101C70002B68590610D5D5F89830B3F5006F00F0F1
:101C8000388100F21D81002B00F02381B3F5806FB5
:101C900000F02981012634462B681A0610D5D5F8A4
:101CA0009C30B3F5804F00F0488100F22D81002B6D
:101CB00000F03381B3F5005F00F03981012634462E
:101CC0002B681B0714D5D5F88030B3F5805F07D19A
:101CD000022105F12400FFF74FFC002818BF012660
:101CE000884AD5F88010536D23F440530B43536555
:101CF0002B68DF0614D5D5F89430B3F5807F07D173
:101D0000022105F12400FFF737FC002818BF012647
:101D10007C4AD5F89410936D23F440730B4393657C
:101D20002B6818031AD5D5F8A010B1F5803F00F044
:101D30000C81B1F5003F06D0002940F00C81281D30
:101D4000FFF7A2FB0446002C40F008816D4AD5F84D
:101D5000A010936D23F440330B4393652B68590314
:101D60001CD5D5F88430B3F5001F00F0F980B3F529
:101D7000401F08D0B3F5801F40F0F980614AD36A54
:101D800043F40033D362002C40F0F4805D4AD5F870
:101D90008410536D23F440130B4353652B68DA030F
:101DA00009D5EB6C002B00F0E780B3F5803F00F025
:101DB000F180012634462B689B0007D5022105F1EE
:101DC0002400FFF7D9FB002818BF01262B689F03CA
:101DD0000AD5E96FB1F5807F00F0F28000F2E28071
:101DE000002900F0E5800126DC0206D54549286F70
:101DF0000A6D22F0004202430A65D80007D5414926
:101E0000D5F8B4000A6922F4804202430A619902BB
:101E100006D53C49A86E0A6D22F0807202430A651D
:101E20005A0009D5374A116921F40041116111693D
:101E3000D5F8B80001431161002B06DA3149286D4D
:101E4000CA6C22F040520243CA641B0207D52D4AD5
:101E5000D5F88810536D23F440030B435365301EAF
:101E600018BF0120BDE8F883012105F12400FFF728
:101E700083FBDDE601263446E6E62646E4E623F06B
:101E80008052B2F1804F03D0B3F1405F7FF4EEAEE9
:101E9000A4B91C4AD5F88C10536D23F0E0430B43D2
:101EA0005365E5E60021281DFFF7EEFA0446EFE74B
:101EB000022105F12400FFF75FFBF7E72646D7E68E
:101EC00023F48062B2F5805F03D0B3F5406F7FF4F6
:101ED000E1AEA4B90B4AD5F89810936D23F4E05302
:101EE0000B439365D8E60021281DFFF7CDFA044681
:101EF000EFE7022105F12400FFF73EFBF7E7264656
:101F0000CAE600BF0044025823F40052B2F5004F65
:101F100003D0B3F5C04F7FF4D1AEA4B92C4AD5F8A5
:101F20009C10936D23F460430B439365C8E6002136
:101F3000281DFFF7A9FA0446EFE7022105F1240066
:101F4000FFF71AFBF7E72646BAE6022105F124005F
:101F5000FFF712FBF6E601263446FFE62646FDE6CD
:101F6000012105F12400FFF707FB04460BE70126DA
:101F7000344613E7264611E7154AD36A43F4003383
:101F8000D3626CB9124AE96CD36C23F480330B43EF
:101F9000D36410E70221281DFFF776FA0446F0E724
:101FA000264608E721F48072B2F5007F7FF41BAF6C
:101FB00064B90748426D22F440720A43426513E750
:101FC0000348C26A42F40032C262F1E726460BE7D8
:101FD0000044025808B5FFF711FA054B054A1B6A81
:101FE000C3F30213D35C03F01F03D84008BD00BF46
:101FF0000044025899E600084E4A70B5946A966A01
:10200000D36A16F47C3FC6F30531D56B00F08D80A2
:1020100007EE901AC3F30013C5F3CC0104F00304D8
:10202000F8EEE76A4B43012CB7EE006A07EE903AF0
:10203000FAEEE97A6BD0022C5BD0002C67D11368E2
:102040009B0646D51168936BC1F3C1013A4AC3F3AD
:102050000803CA4007EE102AF8EEC75A85EEA67AA2
:1020600006EE903AF8EEE66A76EEA77A77EE867A92
:10207000304A67EE877A936BC3F3462307EE103A34
:10208000B8EEC77A37EE067AC7EE876AFCEEE66AE4
:10209000C0ED006A936BC3F3064307EE103AB8EE47
:1020A000C77A37EE067AC7EE876AFCEEE66AC0EDBD
:1020B000016A936BC3F3066307EE103AB8EEC77A72
:1020C00037EE066A87EE867ABCEEC77A80ED027A32
:1020D00070BD936BDFED195AC3F3080307EE103A96
:1020E000B8EEC77A77EE277A77EE867A85EEA67A0B
:1020F000BEE7936BDFED125AC3F3080307EE103A05
:10210000B8EEC77A77EE277A77EE867AEEE7936BAA
:10211000DFED0C5AC3F3080307EE103AB8EEC77AA6
:1021200077EE277A77EE867AE0E7C0E900118160E2
:10213000CEE700BF004402580090D0030024744C46
:1021400020BCBE4B0024744A4E4A70B5946A966A0D
:10215000D36A16F07C7FC6F30551556C00F08D8074
:1021600007EE901AC3F30023C5F3CC0104F0030477
:10217000F8EEE76A4B43012CB7EE006A07EE903A9F
:10218000FAEEE97A6BD0022C5BD0002C67D1136891
:102190009B0646D51168136CC1F3C1013A4AC3F3DB
:1021A0000803CA4007EE102AF8EEC75A85EEA67A51
:1021B00006EE903AF8EEE66A76EEA77A77EE867A41
:1021C000304A67EE877A136CC3F3462307EE103A62
:1021D000B8EEC77A37EE067AC7EE876AFCEEE66A93
:1021E000C0ED006A136CC3F3064307EE103AB8EE75
:1021F000C77A37EE067AC7EE876AFCEEE66AC0ED6C
:10220000016A136CC3F3066307EE103AB8EEC77A9F
:1022100037EE066A87EE867ABCEEC77A80ED027AE0
:1022200070BD136CDFED195AC3F3080307EE103AC3
:10223000B8EEC77A77EE277A77EE867A85EEA67AB9
:10224000BEE7136CDFED125AC3F3080307EE103A32
:10225000B8EEC77A77EE277A77EE867AEEE7136CD8
:10226000DFED0C5AC3F3080307EE103AB8EEC77A55
:1022700077EE277A77EE867AE0E7C0E90011816091
:10228000CEE700BF004402580090D0030024744CF5
:1022900020BCBE4B0024744A70B5044608B9012026
:1022A00070BD02680023444983628A42C36809D032
:1022B000A1F578418A4205D001F580618A4201D0BA
:1022C0000F2BECD8E16B08334909DB0801FB033322
:1022D00039498A4263D0A1F578418A425FD001F53D
:1022E00080618A425BD0082BD9D894F8813003F002
:1022F000FF0223B9204684F880200AF067FC0223FD
:102300002268616884F881301368A56B23F00103AB
:102310001360A369B3F1806F04D1B1F5800F40D190
:10232000002D43D0A66A0B43E0692B433043E66B94
:102330003043E66830439060606B0343606A034358
:102340002069034360690343206A0343E06C03434D
:10235000A0680343A06C0343A06D0343D36059B945
:10236000936823F4C05343F400639360936823F4A9
:10237000C06343F480639360136D23F0010313651E
:102380004B0205D5D368616D23F000430B43D36046
:1023900000200123C4F8840084F8813080E7102BEA
:1023A000A2E70029BED1B5F1805FBBD1106840F42F
:1023B00080501060B6E700BF0030014090F83D301B
:1023C000012B33D1022380F83D300368DA6842F0F4
:1023D0000102DA60164A93421AD0B3F1804F17D047
:1023E000A2F57C42934213D002F5806293420FD053
:1023F00002F5806293420BD002F57842934207D0F7
:10240000A2F56C42934203D002F59432934207D175
:102410009968084A0A40062A06D0B2F5803F03D0E0
:102420001A6842F001021A600020704701207047CC
:102430000000014007000100704770477047704777
:10244000704703681A69910710B504460FD5DA681A
:1024500092070CD56FF002021A61012202779B6984
:10246000990700F08580FFF7E9FF002323772368B1
:102470001A69520710D5DA6850070DD56FF00402BB
:1024800020461A61022222779B6913F4407F75D09F
:10249000FFF7D4FF0023237723681A6911070FD5AC
:1024A000DA6812070CD56FF0080220461A61042280
:1024B0002277DB699B0767D0FFF7C0FF00232377F4
:1024C00023681A69D00610D5DA68D1060DD56FF0E9
:1024D000100220461A6108222277DB6913F4407F3C
:1024E00058D0FFF7ABFF0023237723681A69D20780
:1024F00008D5DA68D00705D56FF0010220461A61C9
:10250000FFF79AFF23681A69110608D5DA681206E0
:1025100005D56FF0800220461A6100F0ECF92368BF
:102520001A69D00508D5DA68110605D56FF48072EE
:1025300020461A6100F0E0F923681A69520608D5AE
:10254000DA68500605D56FF0400220461A61FFF7A1
:1025500077FF23681A69910622D5DA6892061FD59B
:102560006FF0200220461A61BDE8104000F0C2B9A9
:10257000FFF763FF2046FFF762FF76E7FFF75DFF97
:102580002046FFF75CFF85E7FFF757FF2046FFF780
:1025900056FF93E7FFF751FF2046FFF750FFA2E7F2
:1025A00010BD0000304A0368904212D0B0F1804F55
:1025B0000FD0A2F57C4290420BD002F5806290428F
:1025C00007D002F58062904203D002F57842904233
:1025D00019D14A6823F070031343234A90421DD057
:1025E000B0F1804F1AD0A2F57C42904216D002F58D
:1025F0008062904212D002F5806290420ED002F5C5
:10260000784290420AD0194A904207D002F580627F
:10261000904203D002F58062904203D123F44073CC
:10262000CA6813434A6923F08003134303608B682D
:10263000C3620B6883620C4B98420FD003F5806332
:1026400098420BD003F57053984207D003F580638E
:10265000984203D003F58063984201D10B6903636C
:1026600001234361704700BF00000140004001406A
:1026700010B5044650B390F83D3003F0FF021BB98B
:1026800080F83C200AF080FA02232068211D84F89B
:102690003D30FFF787FF0123002084F8483084F89D
:1026A0003E3084F83F3084F8403084F8413084F87C
:1026B000423084F8433084F8443084F8453084F85C
:1026C000463084F8473084F83D3010BD0120FCE7E7
:1026D000114310B5846841EA032324F47F44234363
:1026E000836010BD70B590F83C300446012B4FF06C
:1026F000020300F0AC80012280F83D30554B80F899
:102700003C20006885682B4083600B68702B55D097
:102710003BD8502B68D01CD8402B7FD006D8202B1C
:102720000ED00BD833F010020AD00122012384F816
:102730003D30002384F83C30104670BD302BF4D17E
:10274000826822F4401222F07002134343F0070320
:1027500062E0602BEAD14D68CE68016A21F0100179
:1027600001628269036A22F4704223F0A00342EA04
:10277000063243EA051382610362836823F440133F
:1027800023F0700343F0670346E0B3F5005F21D008
:1027900004D8B3F5805218BF0122C7E72E498B42F7
:1027A000CED005D823F01001B1F5801FC8D0BDE709
:1027B0002A498B42C4D010318B42F7E7CB68D1E96C
:1027C0000121FFF785FF2268936843F07703936048
:1027D0000022ABE7CB68D1E90121FFF779FF22683E
:1027E000936843F48043F2E74A68CE68016A056A59
:1027F00021F00A0125F001050A430562836923F0EF
:10280000F00343EA061383610262836823F44013F2
:1028100023F0700343F057038360D9E74A68CE681A
:10282000016A056A21F00A0125F001050A430562E3
:10283000836923F0F00343EA06138361026283682D
:1028400023F4401323F0700343F04703E4E71A46F0
:1028500072E700BF8800CEFF20001000300010009B
:1028600030B590F83C30012B4FF002033DD080F89A
:102870003D301F4D0368AB425A689C6803D005F594
:102880008065AB4203D122F470024D682A430D6883
:1028900022F070022A435A60154A93421AD0B3F1CB
:1028A000804F17D0A2F57C42934213D002F580628C
:1028B00093420FD002F5806293420BD002F578422A
:1028C000934207D0A2F56C42934203D002F59432B2
:1028D000934204D1896824F080020A439A6001235C
:1028E00080F83D30002380F83C30184630BD00BFF2
:1028F000000001407047704770470000F0B5044683
:102900000368C06987B02169A2681D680A436169CC
:102910000A43A449024329400A43E1681A605A68FD
:1029200022F440520A43A1695A609F4A93421CBF55
:10293000226A11439A6822F06E4222F430620A43FE
:10294000616A9A60DA6A22F00F020A43DA62974AF1
:1029500093421BD1964B5B6D03F03803282B6CD848
:10296000944AB0F5004FD35C40F00181082B00F28F
:10297000BF80082B61D8DFE813F0E600EB006000B1
:102980006000EE00600060006000F3008A4A93423D
:1029900007D1874B5B6D03F00703052B4DD8874AA2
:1029A000DFE7874A934207D1814B5B6D03F0070352
:1029B000052B42D8834AD4E7834A934207D17C4B04
:1029C0005B6D03F00703052B37D8804AC9E7804ABF
:1029D000934207D1764B5B6D03F00703052B2CD890
:1029E0007C4ABEE77C4A934207D1714B5B6D03F092
:1029F0003803282B21D8794AB3E7794A934207D183
:102A00006B4B5B6D03F00703052B16D8754AA8E7DF
:102A1000754A934207D1664B5B6D03F00703052BA4
:102A20000BD8724A9DE7604A934206D102F50E32F6
:102A3000936D03F00703052B01D901200EE06C49CB
:102A4000CB5C102B23D011D8042B16D0082B19D017
:102A5000022BF2D1FFF7BEFA10BB00204FF001139A
:102A6000A3660023C4E91C3307B0F0BD202B3DD082
:102A7000402BE2D14FF4004012E06846FFF7BCFA69
:102A80000198E9E703A8FFF75FFB0498E4E7136800
:102A9000584813F0200F03D01368C3F3C103D84084
:102AA000554B626A656833F8122005EB4501B0FBAF
:102AB000F2F39942C1D8B3EB053FBED80023002101
:102AC000FDF70EFC2A460F020023060247EA1067B4
:102AD0006808301847F10001FDF702FC474BA0F5EC
:102AE00040729A42A9D82368D860B6E74448D7E72D
:102AF000202B3AD0402B0BD0102B9ED12C4B3D4895
:102B00001A6812F0200F03D01B68C3F3C103D8402A
:102B1000616A394B626833F81130B0FBF3F3500847
:102B200000EB43004FF6EF73B0FBF2F0A0F11002A0
:102B30009A4282D820F00F03C0F3420022689BB271
:102B40001843D06089E7FEF77BFC002885D0DFE7DB
:102B5000FEF788FCF9E76846FFF74EFA0198F4E7BC
:102B600003A8FFF7F1FA0498EFE72548D0E7082B10
:102B700048D8082B3FF661AF01A252F823F000BFFE
:102B8000472C0008532C00083B2A00083B2A000869
:102B9000592C00083B2A00083B2A00083B2A000861
:102BA000632C0008F369FFCF000C005800100140AF
:102BB00000440258F0E500080044004019E600080F
:102BC0000048004019E60008004C004019E60008E3
:102BD0000050004019E6000800140140F0E500082C
:102BE0000078004019E60008007C004019E6000863
:102BF0001FE600080090D00326E60008FFFC0F0047
:102C000000093D00202B31D0402B31D0102B7FF418
:102C100014AF194B19481A6812F0200F03D01B6823
:102C2000C3F3C103D840616A154A636832F81120C2
:102C3000B0FBF2F000EB5300B0FBF3F04FF6EF7394
:102C4000A0F110024DE7FEF7FBFB00283FF405AFB3
:102C5000E9E7FEF707FCF8E76846FFF7CDF90198CA
:102C6000F3E703A8FFF770FA0498EEE70548DAE700
:102C70004FF40040D7E700BF004402580090D00353
:102C800026E6000800093D00836ADA0710B506D57C
:102C90000168C46A4A6822F4003222434A609C07F1
:102CA00006D50168046B4A6822F4803222434A60E8
:102CB000590706D50168446B4A6822F480222243F2
:102CC0004A601A0706D50168846B4A6822F40042FC
:102CD00022434A60DC0606D50168C46B8A6822F488
:102CE000805222438A60990606D50168046C8A687E
:102CF00022F4005222438A605A0610D50168446CBF
:102D00004A68B4F5801F22F4801242EA04024A6045
:102D100005D14A68846C22F4C00222434A601B0633
:102D200006D50268C16C536823F400230B4353603B
:102D300010BD2DE9F041DDF8188004460E46154619
:102D40001F462268D36936EA03030CBF0123002320
:102D5000AB4201D0002027E0B8F1FF3FF2D0FDF7F1
:102D600015FDC01B4045206802D8B8F1000F1DD1E9
:102D700050E8003F23F4D07340E80032002AF7D136
:102D800000F1080353E8003F23F0010300F10801BC
:102D900041E80032002AF3D12023C4F88430C4F87B
:102DA0008830032084F88020BDE8F08103685A074A
:102DB000C7D5C3691B05C4D54FF40063036250E84F
:102DC000003F23F4D07340E80032002AF7D100F12D
:102DD000080353E8003F23F0010300F1080141E834
:102DE0000032002AF3D12023C4F88430C4F888309C
:102DF000C4F88C30D5E72DE9FF419846D0F88430EF
:102E000004460E46202B174650D100294CD0002AEC
:102E10004AD090F88030012B48D00123002580F85B
:102E200080302123C0F88C50C0F88430FDF7AEFC10
:102E3000A2680346A4F85470B2F5805FA4F85670F7
:102E400003D122690AB935461646002284F880204B
:102E5000B4F85620CDF8008092B242B94021204605
:102E6000FFF767FF58B92023C4F8843008E0002238
:102E7000802120460393FFF75CFF039B18B10320DA
:102E800004B0BDE8F08121685EB935F8022BC2F3C9
:102E900008028A62B4F85620013A92B2A4F8562089
:102EA000D6E716F8012BF4E70120E9E70220E7E76F
:102EB0002DE9F7431F46D0F8883004460D46202BF5
:102EC00016466AD1002966D0002A64D090F8803076
:102ED000012B62D001234FF0000880F880302223BC
:102EE000C0F88C80C0F88830C0F86C80FDF74EFCCC
:102EF000A3688146A4F85C60B3F5805FA4F85E60C7
:102F00001DD12269CAB940F2FF12A4F86020B3F5BE
:102F1000805FB4F8608023D123690BBB2E461D4629
:102F2000002384F88030B4F85E2090B2D0B920231A
:102F3000C4F8883003B0BDE8F083FF22E5E723B989
:102F40002269002AF9D07F22DFE7B3F1805F04D144
:102F50002269002AF7D03F22D7E7A4F86080D6E79D
:102F60000026DDE74B460022202120460097FFF790
:102F7000E0FEA0B923685B6A08EA030345B926F8B6
:102F8000023BB4F85E20013A92B2A4F85E20CAE790
:102F900005F8013BF5E70120CCE70220CAE7032052
:102FA000C8E730B50025044685B0C0F88C50FDF761
:102FB000EDFB226803461268110717D422681268D5
:102FC000520709D56FF07E424FF4800120460092EF
:102FD0000022FFF7AEFEB0B920230020C4F88430F1
:102FE00084F88000C4F88830E0660DE06FF07E421F
:102FF00003904FF40011204600922A46FFF799FEF5
:10300000039B0028DAD0032005B030BD10B504467C
:1030100050B3D0F884301BB980F8803009F0FEFC42
:10302000226824232046C4F88430136823F0010367
:103030001360FFF763FC012816D0A36A13B1204682
:10304000FFF722FE236820465A6822F490425A6015
:103050009A6822F02A029A601A6842F00102BDE8DA
:1030600010401A60FFF79DBF012010BD10B5044647
:1030700070B3D0F884301BB980F8803009F0CEFCF2
:10308000226824232046C4F88430136823F0010307
:103090001360FFF733FC01281AD0A36A13B120464E
:1030A000FFF7F2FD236820465A6822F490425A60E6
:1030B0009A6822F022029A609A6842F008029A60A6
:1030C0001A6842F00102BDE810401A60FFF769BFBC
:1030D000012010BD436E30B51BB94FF0011383665C
:1030E00030BD03680A4D9A6899680A4CC2F342627F
:1030F000490F6B5C615C1B01B3FBF1F3A0F86A3014
:10310000AB5CA25C1B01B3FBF2F3A0F86830E7E70D
:1031100046E600083EE6000810B590F88030044608
:10312000012B1AD0012380F880302423C0F884308A
:1031300003681A68196842F0005221F00101196011
:103140004FF0005141661A60FFF7C4FF2023C0F81A
:103150008430002084F8800010BD0220FCE738B5E0
:1031600090F880300446012B1BD0012380F880307A
:103170002423C0F8843003681D681A6822F0010215
:103180001A609A6822F0604211439960FFF7A2FF2B
:1031900003681D602023C0F88430002084F880007C
:1031A00038BD0220FCE738B590F880300446012B8A
:1031B0001BD0012380F880302423C0F884300368BA
:1031C0001D681A6822F001021A609A6822F0606293
:1031D00011439960FFF77EFF03681D602023C0F84C
:1031E0008430002084F8800038BD0220FCE7000015
:1031F000DFF834D000F08AF80C480D490D4A00235E
:1032000002E0D458C4500433C4188C42F9D30A4A9B
:103210000A4C002301E013600432A242FBD309F000
:10322000ABFD09F0BFFA704700000220000000204B
:103230009800002080B00A0898000020B8280020DC
:10324000FEE7FEE710B51EF0040F0CBFEFF3088495
:10325000EFF3098486B008F0DBF80B4B0B491868D4
:10326000E3690593A3690493636903932369029354
:10327000E3680193A3680093C068D4E9002309F0D0
:10328000FBFC08F0CFF8FEE7340000204EE6000813
:10329000FEE7FEE7FEE7704708B5FDF76BFA01F0C1
:1032A0002FFA012803D0BDE8084000F02BBA08BD72
:1032B00072B6FEE74FF0FF3070474FF40053002026
:1032C0004B60704701207047002070470B4B02464F
:1032D000196810B509B90A491960186809490A4CF2
:1032E0000244091B8A4206D909F0C0FC0C23036082
:1032F0004FF0FF3010BD1A60FCE700BFB4000020A3
:10330000000000240000022000080000254AD2F836
:10331000883043F47003C2F88830234A136803F0FE
:103320000F03062B05D8136823F00F0343F00703A0
:1033300013601E4B1A6842F001021A6000221A61E3
:103340001B4A19680A4018491A600A68120705D50D
:103350000A6822F00F0242F007020A6000221549B3
:103360009A61DA611A6299621349D9621349196341
:103370005A639963DA6319645A64196821F48021E5
:1033800019601A660E4B1B681B0C1B04B3F1005F1F
:1033900002D20C4B01221A600B4B43F2D2021A608C
:1033A000704700BF00ED00E00020005200440258CA
:1033B0007FEDF6EA000202020000FF018002010137
:1033C0000010005C08810051004000520F4B10B506
:1033D0001A461B688342FBD354681119884201BF07
:1033E0004168104609195160446801198B4207D1A0
:1033F000074909688B421FBF59681B68091941605A
:103400009042036018BF106010BD00BFD0000020C4
:10341000B80000202DE9F041044600F0B3FE234B34
:103420001F68274240D1002C36D004F10803620700
:103430001CBF23F007030833002B35D01C4A166845
:1034400090469E4230D31B4A15686868984201D264
:10345000296831BB18490968A94225D02968146830
:103460001160C21A0834102A04D9E81842606B604F
:10347000FFF7ACFF6A6800231049B61A1743104AD9
:1034800008682B6013688642C8F8006003F10103E6
:1034900038BF0E606F60136000F012FF2046BDE879
:1034A000F0812A460D46D0E70024F5E7BC00002055
:1034B000C0000020D0000020B8000020C400002080
:1034C000C800002010B5044600B3114A50F8043C6F
:1034D000126813421AD050F8081CB9B923EA020343
:1034E00040F8043C00F04EFE0A4A54F8043CA4F1B3
:1034F000080011680B441360FFF768FF064A136861
:103500000133BDE81040136000F0DABE10BD00BF0B
:10351000BC000020C0000020CC000020014B186837
:10352000704700BFC0000020014B1868704700BF03
:10353000C40000202DE9F04300231B4E00F10408D5
:10354000DFF874C037681C461D469E4658F8342084
:103550005AB903B13760154B4FF000421D60144B50
:103560001D60144B1A60BDE8F08350F83490A2F14E
:10357000080319F0070F16BF09F10701494621F0AA
:1035800007010CB9CCE900144B4423F007035A1A85
:10359000C3E900EEC1E9003207B139601F461544A6
:1035A00001340123D2E700BFB8000020C40000208E
:1035B000C0000020BC000020D000002082B000230A
:1035C00001934FF0500383F31188BFF36F8FBFF364
:1035D0004F8F019B002BFCD002B070470848006859
:1035E000006880F308884FF0000080F3148862B60A
:1035F00061B6BFF34F8FBFF36F8F00DF00BF0000D6
:1036000008ED00E0DFF80C00016841F47001016092
:103610007047000088ED00E04FF0807321F0010159
:1036200040F8202C44380364034BC16383636FF07C
:1036300002030362704700BFBD35000800000000B0
:10364000074B19680868B0E8F04F80F30988BFF3AA
:103650006F8F4FF0000080F311887047AFF3008048
:10366000D80000204FF0500383F31188BFF36F8F11
:10367000BFF34F8F024A136801331360704700BFD6
:1036800010000020034A1368013B13600BB983F359
:1036900011887047100000200000000000000000AA
:1036A000EFF30980BFF36F8F154B1A681EF0100FF0
:1036B00008BF20ED108A20E9F04F10602DE90900C5
:1036C0004FF0500080F31188BFF34F8FBFF36F8F1F
:1036D00000F07AFE4FF0000080F3118809BC1968F1
:1036E0000868B0E8F04F1EF0100F08BFB0EC108A69
:1036F00080F30988BFF36F8F704700BFAFF300807E
:10370000D800002008B54FF0500383F31188BFF3B1
:103710006F8FBFF34F8F00F049FD18B1034B4FF08F
:1037200080521A60002383F3118808BD04ED00E085
:103730000023084A084913600B604FF47A71074B65
:103740001B68B3FBF1F30649013B0B6007231360D1
:10375000704700BF10E000E018E000E00800002023
:1037600014E000E00E4B1A6842F4700210B51A60C3
:1037700000241A6842F070421A60FFF7D9FF094B23
:103780001C60FFF73FFF084A136843F04043136093
:10379000FFF724FF00F018FEFFF710FF204610BDD2
:1037A00020ED00E01000002034EF00E000F10803FD
:1037B0004FF0FF3243600361C0E90223002303603E
:1037C000704700230361704743689A684B608A60C2
:1037D0009A6851609960036808610133036070471B
:1037E00030B50C68631C0AD103695A684A6091605D
:1037F0008B605960036808610133036030BD00F1DC
:103800000802134652681568A542FAD9EDE7036924
:10381000D0E901128A6051605968814208BF5A603C
:10382000002202611A68013A1A601868704710B5E0
:103830000446FFF717FFA46BFFF724FFB4FA84F0E8
:10384000400910BDF8B51546026C0446866B52B9A6
:10385000076847BB806800F0B1FF0546A7600136E6
:103860002846A663F8BD65B9406809F0BAFA6368EE
:10387000226C1344A26893426360F0D323686360B0
:10388000EDE7C06809F0ADFA226CE36851429B1A7B
:1038900022689342E3603EBFA3685B18E360022D99
:1038A00001D116B1013E0025D9E73546D7E70346D9
:1038B00008461A6C10B462B1DC68996814448C42F2
:1038C000DC605DF8044B24BF1968D960D96809F041
:1038D00088BA5DF8044B704770B50446FFF7C2FE26
:1038E00094F8455004F124066DB2002D14DCFF233A
:1038F00004F1100684F84530FFF7C4FEFFF7B2FE6E
:1039000094F844506DB2002D12DCFF2384F844304B
:10391000BDE87040FFF7B6BE636A002BE7D03046C3
:1039200000F0B6FD08B100F023FE013D6DB2DCE70A
:103930002369002BE9D0304600F0AAFD08B100F061
:1039400017FE013D6DB2DEE738B504460D46FFF7C0
:1039500089FE2268D4E90F3162604B43D0185B1AAC
:103960001344A0600020E360FF23A06384F8443088
:1039700084F8453095B9236963B104F1100000F073
:1039800087FD38B10A4B4FF080521A60BFF34F8F5A
:10399000BFF36F8FFFF776FE012038BD04F11000F2
:1039A000FFF704FF04F12400FFF700FFF2E700BF78
:1039B00004ED00E0F8B5064648430D461746503082
:1039C000FFF728FD044658B165B100F1500301210D
:1039D00020462360C4E90F65FFF7B6FF84F84C70FA
:1039E0002046F8BD0346F2E72DE9FF474FF00008F7
:1039F00004460F461E46C146DFF8ECA00192FFF7D1
:103A000031FEA26BE36B9A4201D3022E19D13246EA
:103A100039462046FFF716FF636A1BB104F1240004
:103A200000F036FD38B1304B4FF080521A60BFF3D2
:103A30004F8FBFF36F8FFFF725FE012004B0BDE865
:103A4000F087019D1DB9FFF71DFE0020F6E7B8F1D4
:103A5000000F02D102A800F057FDFFF713FE00F09F
:103A600091FBFFF7FFFD94F84430FF2B01D184F860
:103A7000449094F84530FF2B01D184F84590FFF72E
:103A800001FE01A902A800F04BFD30BBFFF7EAFDE3
:103A9000A26BE36B9A420FD1FFF7F4FD019904F199
:103AA000100000F0E5FC2046FFF716FF00F008FCD0
:103AB00050B14FF00108A2E7FFF7E4FD2046FFF701
:103AC0000BFF00F0FDFBF4E74FF08053CAF8003025
:103AD000BFF34F8FBFF36F8FEBE72046FFF7FCFE7E
:103AE00000F0EEFBB1E700BF04ED00E0024600216C
:103AF000012010B5FFF75EFF044638B100231A46D7
:103B0000194683600360C360FFF76EFF204610BD57
:103B100038B50C46EFF311854FF0500383F311884D
:103B2000BFF36F8FBFF34F8F826BC36B93421BD971
:103B300090F845100132FF294BB282630FD1436ADE
:103B40000BB9012008E0243000F0A2FC0028F8D0D6
:103B5000002CF6D00120206085F3118838BD013398
:103B60005BB280F84530ECE70020F5E72DE9F04343
:103B7000002785B004460E46B846DFF8DC90019277
:103B8000FFF770FDA56BD5B1013D31462046FFF72B
:103B90008EFEA563236963B104F1100000F078FC88
:103BA00038B12D4B4FF080521A60BFF34F8FBFF3E7
:103BB0006F8FFFF767FD012005B0BDE8F083019D21
:103BC0001DB9FFF75FFD0020F6E717B902A800F066
:103BD0009BFCFFF757FD00F0D5FAFFF743FD94F883
:103BE0004430FF2B01D184F8448094F84530FF2BFA
:103BF00001D184F84580FFF745FD01A902A800F036
:103C00008FFCF0B92046FFF712FEA0B1019904F134
:103C1000240000F02DFC2046FFF75EFE00F050FB74
:103C200038B94FF08053C9F80030BFF34F8FBFF35E
:103C30006F8F0127A4E72046FFF74EFE00F040FB00
:103C4000F7E72046FFF748FE00F03AFB2046FFF773
:103C5000EEFD0028EDD0B6E704ED00E02DE9F043DD
:103C6000002585B00446DFF818912F462E460191B5
:103C7000FFF7F8FCA36BE3B1013BA363236813B91F
:103C800000F016FEA060236963B104F1100000F09B
:103C9000FFFB38B13A4B4FF080521A60BFF34F8FA1
:103CA000BFF36F8F0125FFF7EDFC284605B0BDE897
:103CB000F083DDF80480B8F1000F03D10025FFF791
:103CC000E1FCF2E717B902A800F01EFCFFF7DAFCEE
:103CD00000F058FAFFF7C6FC94F84430FF2B01D1EE
:103CE00084F8446094F84530FF2B01D184F8456096
:103CF000FFF7C8FC01A902A800F012FC40BB204657
:103D0000FFF795FDF0B123683BB9FFF7ABFCA06866
:103D100000F006FD0546FFF7B5FC019904F124000B
:103D200000F0A6FB2046FFF7D7FD00F0C9FA38B92E
:103D30004FF08053C9F80030BFF34F8FBFF36F8F40
:103D4000012795E72046FFF7C7FD00F0B9FAF7E72E
:103D50002046FFF7C1FD00F0B3FA2046FFF767FDEC
:103D60000028EDD0002DA0D0FFF77CFC616A19B1CE
:103D7000236B1968C1F10601A06800F059FD9DE7A9
:103D800004ED00E013B50446FFF76CFCA06B019056
:103D9000FFF778FC019802B010BD0000002309492C
:103DA00010B551F83320DC00824206D1064A0021CA
:103DB00042F833102244516010BD01330A2BF0D178
:103DC000FAE700BF480E0020440E002010B5FFF7B0
:103DD000E5FFBDE81040FFF775BB0000064A136819
:103DE0001968064B19B94FF0FF321A607047126814
:103DF000D268D2685268F8E7DC000020A0010020F9
:103E0000F8B51B4B04461B4F0E461D68386804303E
:103E1000FFF7FDFC3B4640B939681748CF6A0121DE
:103E20000268B94022EA01020260621C07D136B181
:103E3000196812480431BDE8F840FFF7C5BC2C19D9
:103E40001A68546007D30E4A10681968BDE8F84034
:103E50000431FFF7C5BC0B4A106819680431FFF73D
:103E6000BFFC094B1A68A24200D91C60F8BD00BF14
:103E7000EC010020D800002070010020C4010020C7
:103E8000E0000020DC000020A001002080B50E4CE6
:103E90000E4F0F4E2368002BFBD0FFF7E3FBFB68B0
:103EA000DD68281DFFF7B3FC3368013B33602368EE
:103EB000013B2360FFF7E6FB286BFFF703FB284677
:103EC000FFF700FBE6E700BF64010020D8010020F7
:103ED000600100202DE9F84F960007460D469846F0
:103EE0003046FFF797FA8146A0B15C20FFF792FABF
:103EF000044660B1C0F830903246A521484608F02B
:103F000098FFD4F830B045B984F8345015E04846ED
:103F1000FFF7D8FA4FF0FF3596E06B1E04F134023C
:103F2000093513F9011F02F8011B93F9001009B1BB
:103F30009D42F6D1002384F83D300A9D4FF0000ADF
:103F400004F10409043E052DC4F84CA048465E4423
:103F500028BF0525E562A564C5F10605FFF731FC1C
:103F600004F11800FFF72DFCC4F854A0424639466E
:103F700026F007002461A5616462C4F850A084F8AB
:103F800058A0FFF749FB0B9B206003B11C60FFF7B3
:103F900069FB344B344E1A68344F01321A60326870
:103FA000002A54D134601B68012B28D13048FFF718
:103FB000FDFB3048FFF7FAFB2F48FFF7F7FB2F48D0
:103FC000FFF7F4FBDFF8E4802D48FFF7EFFB2D4D02
:103FD0002D48FFF7EBFB4046FFF7E8FB2846FFF7CD
:103FE000E5FB2A48FFF7E2FB2948FFF7DFFB2948FA
:103FF000FFF7DCFB284BC3F80080284B1D60284AE4
:10400000012528491368086801331360E26A2364B4
:1040100005FA02F3034314200B604946144B00FBDE
:104020000230FFF7D1FBFFF72DFB3B6863B133682C
:10403000DA6AE36A9A4207D21B4B4FF080521A6049
:10404000BFF34F8FBFF36F8F2846BDE8F88F3B68F3
:10405000002BD4D13368E26ADB6A9A42CFD3346052
:10406000CDE700BF60010020D8000020C001002083
:10407000E4000020F80000200C01002020010020B6
:10408000340100208801002048010020AC010020FC
:10409000D8010020C4010020DC000020E000002046
:1040A0006C0100207001002004ED00E0740100208C
:1040B000F8B5164B04461B68834220D0FFF7D2FAAE
:1040C000134B65691F68134B1E68FFF7DBFABD428F
:1040D00017D0B54215D0104B9D4208D1A36A83B9C1
:1040E00094F85830012B0CBF02200320F8BD0B4B75
:1040F0009D4208D0002D0CBF04200120F6E70020CF
:10410000F4E70220F2E70420F0E700BFD800002027
:10411000DC000020E0000020C4010020D8010020C5
:1041200013B5124B00245022114901932346114824
:104130000094FFF7CFFE012816D14FF0500383F310
:104140001188BFF36F8FBFF34F8F4FF0FF320A4BD1
:104150001A600A4B18600A4B1C6008F045F902B05F
:10416000BDE81040FFF7FEBA02B010BD9C01002070
:10417000A9E600088D3E0008A0010020C001002033
:10418000EC010020024A136801331360704700BF3E
:1041900068010020014B1868704700BFEC01002047
:1041A000014B1868704700BF60010020394B1B6845
:1041B0002DE9F74F002B67D1374B1D6801351D6086
:1041C0005DB9364A364B116818681060354A196077
:1041D000136801331360FFF701FE334E0024334FA1
:1041E0003368DFF8D4809D4211D2D8F80030DA6A03
:1041F00014235343FB58022B2D4B1B6828BF01246B
:10420000002B18BF0124204603B0BDE8F08FDFF873
:104210008CA0DFF8A890DAF800301B681BB94FF0CB
:10422000FF333360E1E7DAF80030DB68D3F80CB035
:10423000DBF80420954201D23260D6E70BF104018D
:1042400008460191FFF7E3FADBF82820019922B133
:104250000BF11800FFF7DBFA0199DBF82C000122C3
:10426000D9F8003082401A43C9F80020142202FB1A
:104270000070FFF7A9FAD8F80010DBF82C20CB6A01
:104280009A4228BF0124C6E70A4A00241368013372
:104290001360B8E768010020EC010020DC0000207A
:1042A000E0000020A4010020A0010020E400002084
:1042B000F0010020A8010020D8000020700100209B
:1042C0002DE9F341FFF7CEF92A4B1A68013A1A603B
:1042D0001C6834B10024FFF7D5F9204602B0BDE8D0
:1042E000F081254B1B68002BF4D0244D244EDFF8C1
:1042F000A4801FE0EB680127DC6804F11800FFF7D9
:1043000086FA211D08460191FFF781FAE26A3068BA
:1043100007FA02F301990343142000FB0280336083
:10432000FFF752FA174BE26A1B68DB6A9A4201D325
:10433000154B1F602B68002BDCD10CB1FFF74EFD35
:10434000124D2C6844B1104E0127FFF72FFF00B12A
:104350003760013CF9D12C600B4B1B68002BB9D0A6
:104360000B4B4FF080521A60BFF34F8FBFF36F8F2C
:104370000124B0E76801002060010020AC010020AA
:1043800070010020D8000020F0010020A8010020CA
:1043900004ED00E0E400002008B540B9094B4FF0FF
:1043A00080521A60BFF34F8FBFF36F8F08BDFFF7C6
:1043B000E9FE0021FFF724FDFFF782FF0028EDD082
:1043C000F4E700BF04ED00E0234B1868234B70B501
:1043D00010B101221A6070BD186007F08FFE204AEC
:1043E000204C1568A84204D921680B6D5B1B03445F
:1043F0000B65236810601B6B1A68B2F1A53F0BD1E7
:104400005A68B2F1A53F07D19A68B2F1A53F03D12E
:10441000DB68B3F1A53F04D020682168343107F090
:10442000ADF9114B1B68B3FA83F3DBB214200F49CB
:10443000C3F11F0300FB03F200FB03138D180832C6
:104440006E680A44766896426E6004BF72686A605D
:104450005B68DB682360BEE768010020F001002094
:104460005C010020D800002070010020E400002042
:10447000064B10B50C4619681831FFF7B1F9204604
:104480000121BDE81040FFF7BBBC00BFD8000020F1
:10449000C36837B5DC6804F1180108460191FFF7DD
:1044A000B6F9134B01991B68EBB9211D0846019120
:1044B000FFF7ADF90F48E26A0123056893400199BF
:1044C0002B43036014200C4B00FB0230FFF77CF9F8
:1044D0000A4BE26A1B68DB6A9A4206D90120084B44
:1044E000186003B030BD0748F0E70020F9E700BFCF
:1044F0006801002070010020E4000020D8000020A6
:10450000F0010020AC010020034B1B680360034B4B
:104510001B684360704700BFA4010020EC0100202D
:1045200070B50C460546FFF79DF80F4B19682368D8
:104530005A1C10D00D482E6800686A68864201D067
:104540008A420FD9881A83420AD95B1A2846134433
:104550002360FFF7D9FF0024FFF794F8204670BDD1
:10456000002323600124F7E7EC010020A4010020D0
:10457000014B01221A607047F001002070B50C4613
:104580001646054608B91B4A156805F13402052B85
:1045900025606260EA6A22612A6BE2612A6CA2608D
:1045A000AA6C62612A6DA2611AD0124A1268AA42EC
:1045B0000AD100232373D6B1296B0023CA5CA52A34
:1045C00013D09B08238470BD032B2373F3D1FFF713
:1045D000D9FDAB6A0BB102232373FFF771FEEAE743
:1045E0002846FFF765FD2073E5E70133E6E72684FB
:1045F000E9E700BFD80000202DE9F84F0D68064616
:104600000C4617461DB34B6801F1080800254FF012
:10461000240B5B6843454B6004BFCB684B604B6821
:10462000D3F80CA063680BFB0561012201355B68C0
:104630009845636004BFD8F8043063606368D3F8BA
:104640000C903B464846FFF799FFCA45EAD12846F9
:10465000BDE8F88F2DE9F04706469046FFF792FD3A
:10466000214B1B688B423CD8062700244FF0140ACC
:104670001E4D4FF02409013F09FB046001220AFB93
:104680000751FFF7B9FF0444002FF4D1184B022261
:1046900009FB04601968FFF7AFFF164B04440222C0
:1046A000196809FB0460FFF7A7FF044404221249BC
:1046B00009FB0460FFF7A0FF251803220F4909FB3F
:1046C0000560FFF799FF0544B8F1000F04D03846A4
:1046D00007F014FDC8F80000FFF7F2FD2846BDE81A
:1046E000F0870025F8E700BF60010020E40000200B
:1046F000DC000020E0000020D8010020C4010020E0
:10470000054B1B6833B1054B1B68002B0CBF022007
:104710000020704701207047C00100206801002080
:10472000F7B50446002832D0214AC36A11681646FC
:10473000C96A8B4233D28269002A04DB3268D26AAA
:10474000C2F10602826114221A4D02FB0353626910
:104750009A421ED1211D08460191FFF758F8164BC9
:10476000019930B9E76A01201A68B84022EA0002CC
:104770001A6032681E68D26AE262012404FA02F00A
:1047800030431860142000FB0250FFF71DF820464C
:1047900003E033680120DB6AE36203B0F0BD136815
:1047A000806CDC6AA0422CBF00200120F5E700BF2E
:1047B000D8000020E400002070010020F7B5044676
:1047C00010B9002003B0F0BDC36CC16A826C013B1C
:1047D0009142C364F5D0002BF3D1011D124F08465E
:1047E0000191FFF714F8114A019950B9E06A1426B3
:1047F0004643BB592BB901251368854023EA0503BD
:104800001360A36CC3F10600E362A0610124106889
:1048100004FA03F50543142000FB03701560FEF74E
:10482000D3FF2046CEE700BFE40000207001002047
:1048300037B50446002835D0836C994238BF1946F5
:10484000C36A8B422ED0C26C012A2BD18269164DCD
:10485000002A4FF01402C16202FB0353A8BFC1F14A
:1048600006014269A8BF81619A421BD1011D084619
:104870000191FEF7CCFFE46A0C4A019928B90120A6
:104880001368A04023EA0003136001231068A340CB
:104890000343142000FB0450136003B0BDE8304014
:1048A000FEF792BF03B030BDE4000020700100208D
:1048B000044B1A681AB11968CA6C0132CA641868C4
:1048C000704700BFD80000202DE9F0418EB080462F
:1048D0004FF4007005A906F01BFB074600284DD0D9
:1048E0000599002503F08BFF0446B8F80E00012659
:1048F00006F02CFD102304F10C012080E37008EB7E
:1049000003006671A5702571A571E5712572657248
:10491000A572E57200F0E6F8059900F10C0210317D
:10492000A318A55420220144DE7038465A7008AC02
:104930009D7003F0E3FE124E042307A9D8F804008B
:10494000069301F089FE0FCE0FC496E8030008AB72
:10495000892284E8030003932946059BD8F80400C4
:104960000092CDE9017306AB06F064FA04463846BE
:1049700003F01EFF20460EB0BDE8F0816424F9E785
:104980008CEA00082DE9F84F98881E46DDF828804B
:1049900006F0DCFC40B900230C224146304600F012
:1049A000DDF838B9BDE8F88FF08806F0CFFC0128B3
:1049B000F8D1F0E700F10A05A845F3D334182089AF
:1049C00006F0C4FC28444045ECD8608806F0BEFCE4
:1049D0000128E7D1208806F0B9FC2028E2D12089FF
:1049E00006F0B4FC0528DDD91C4D00274FF06809FE
:1049F000AB4609FB07F31A4A5BF8033003F0FF13D9
:104A0000934226D16B78102B23D1B5F80EA03088B5
:104A100006F09CFC82451CD105F110030C22414696
:104A2000304600F0D9F8A0B104232B65E3686B652C
:104A300006F040FDA865606806F08BFC4FF47A73C1
:104A400058434EF66023984294BFE865EB65022315
:104A50002B7001376835082FCBD1A3E7A40E0020B7
:104A6000010004002DE9F3411F460B6806460C4681
:104A70000C2BDDF8208029D13846019203F030FE5E
:104A8000A0EB0805A5F10C03B3F5FA7F1ED841464B
:104A9000384603F0B4FE0346C0B1807810F0780FBA
:104AA00014D1D9780A0711D110F0800F04F1040154
:104AB000019A3046089504D102B0BDE8F04100F0FB
:104AC00045B902B0BDE8F041FFF75CBF02B0BDE8F8
:104AD000F08100000023024A892106F0FFBA00BFDE
:104AE000654A0008F0B520230D46012400221A4F24
:104AF00005F8023B835663B90B191046432541263E
:104B00000F2803F1020320D1C2F10F0204EB42048B
:104B100013E0DBB2DE5D06F00306022E08BF203B89
:104B2000C3F3031603F00F03413641330E5502342D
:104B300005F8123001320F2ADCD14123E01C0B555D
:104B400021444B7000238B70F0BD013003F8025CF0
:104B500003F8016CD4E700BF65A60A0870B502F13E
:104B600022048C4202D30022104670BD815C2029B1
:104B7000F9D101320024461C815CA1F14105E9B262
:104B80000F29F0D8B15C4139C9B20F29EBD841EAFD
:104B9000051149B2202906D00BB103F8011B0134DD
:104BA00002320F2CE8D102F12001A1EB4401845C18
:104BB000413C0F2CD7D8B45C413C0F2CD3D8941C6B
:104BC000A14207D1415C03320029CCD1002BCBD0CC
:104BD0001970C9E72246EAE7F0B502F122048C42D7
:104BE00044D2815C202941D101320025461C204F4E
:104BF000815CA1F14104E1B20F2937D8B15C4139A0
:104C0000C9B20F2932D841EA04115C5749B22029B0
:104C100000D1BCB1C9B2E4B211F807C00CF0030C6A
:104C2000BCF1020F17F804C00CF0030C08BF2039C8
:104C3000BCF1020F08BF203CA14217D1013502325E
:104C40000F2DD5D102F12003A3EB4505835C413B39
:104C50000F2B0BD8B35C413B0F2B07D80232954288
:104C6000F4D1405DB0FA80F04009F0BD0020FCE7CF
:104C700065A60A082DE9F0478CB0074688464FF430
:104C8000007005A991461C4606F042F90646002828
:104C900057D005994FF0010A03F0B1FD8523048038
:104CA000002483708023054600F10C01C370047159
:104CB00044718471047244728472C47280F807A0D3
:104CC00007F11900FFF70EFF00F10C020599AB1870
:104CD000AC5420221C319C7006AD5A7078220144DD
:104CE0001C71DA7106225C7130465A72D7F8942131
:104CF0009C711C729C72DC7283F803A0DA6003F072
:104D0000FDFCDFF844C0BCE80F000FC59CE80300C1
:104D100006AB8922CDF81CA085E803000393214649
:104D2000059B3846CDF80090CDE90163434606F077
:104D300081F80446304603F03BFD20460CB0BDE848
:104D4000F0876424F9E700BF8CEA00082DE9F743F7
:104D500006469888884617461D46DDF8289006F0D6
:104D6000F5FA01282AD100230C2249462846FFF7EC
:104D7000F5FE18B3031D4B4520D82C18608806F0AB
:104D8000E5FA01281AD1208806F0E0FA202815D18A
:104D900006F119030C2249462846FFF71DFF68B1AA
:104DA000042338880093D8F80030019306F0CEFA37
:104DB0002B88024669463046FFF75CFF03B0BDE82A
:104DC000F0834FF47072002100F5507008B508F0C0
:104DD00030F8002008BD0246002310B592F8404389
:104DE0001CB1D2F844438C4205D0013360320A2B07
:104DF000F4D1002010BD602202FB030000F55070CA
:104E0000F8E72DE9F3410B7806460C46012B07D154
:104E100001F12405002701F10808E36DBB4204D825
:104E20000023E36502B0BDE8F08155F8080C0137B6
:104E300003F056FC55F8042C6168821A304601F0E4
:104E400031FC019555F8043C4FF400624146304670
:104E50000093203555F8283C02F0A0FF55F8280CA7
:104E600003F0A6FCD9E70B78012B70B50C460BD0EC
:104E70000023E36570BD6B010135F05803F098FC29
:104E8000E36DAB42F7D8F3E7002501F11C06F7E725
:104E900070B505464FF45074002629192846FFF7CF
:104EA000E2FF2E556034B4F5E06FF6D170BD70B5F9
:104EB000054606F0FFFA05F5507405F5E066234651
:104EC000197831B96022184607F0B3FF044620462E
:104ED00070BD1A69811A2269821A914288BF1C46E4
:104EE0006033B342ECD121462846FFF7BCFF602275
:104EF0000021204607F09DFFE9E72DE9F043044635
:104F000085B0104617469946039103F0E9FB0399D3
:104F100080462046FFF75FFF0446002836D003781E
:104F2000012B36D1C36D012B0FD9054604F13C0688
:104F300055F81C0F03F03CFC0FCE0FC596E80F0090
:104F400085E80F00E36D013BE365E56D404603F046
:104F500039FC04EB4516F061E8B100233A46CDF880
:104F600000803546194603F09EFCC6F820900C9E42
:104F700024350FCE0FC596E8030085E80300E36DE6
:104F800000200133E36505B0BDE8F0834FF487707E
:104F9000F9E7E020F7E76420F5E7000070B50C467C
:104FA000D1F80E100646002944D001F040FA00283E
:104FB00040D1D4F80E3003F0F003E02B3AD004F1E6
:104FC000080506222049284607F0FDFE90B3062278
:104FD0001E49284607F0F7FE60B3237ADB0729D481
:104FE000A169304601F072FA20BBD4F80E103046A9
:104FF000FFF7F1FE0446E8B10378012B0FD12868D2
:105000002146AB88A0603046A381FFF7FAFE06F088
:1050100051FA4EF6602320616361022309E0022BFE
:1050200009D100F108010622284607F0CCFE08B19C
:105030000323237070BD052BFCD14160AB88286829
:10504000A381A060E3E700BF32E900082CE9000873
:105050002DE9F0418AB08846074603F0F9FE03A91E
:1050600005461C2002F064FF0646002842D0039942
:1050700003F0C5FB0446012006F068F920804FF4D8
:10508000006006F063F90623608001202371042389
:10509000637106F05BF9B5F88830E080D5F88400DC
:1050A000A3810023144DA373E37323746374134B20
:1050B000A0601A689B88C4F81220E382C4F81880A4
:1050C00004AC0FCD0FC495E8030004AB40F6060214
:1050D00084E8030001933846039B09490093334653
:1050E00002F05CFE0446304603F062FB20460AB044
:1050F000BDE8F0816424F9E78CEA000832E9000891
:105100002CE900082DE9F0410D468CB017460390BC
:1051100003F09EFE05AA8046294603A801F022FA64
:105120000446002842D104A91C2002F001FF0646D3
:1051300000283FD0049903F062FB0446012006F0EA
:1051400005F920804FF4006006F000F90623608026
:10515000012023710423637106F0F8F8B8F8883051
:10516000E080D8F88400A381059BA561C4F80E30C7
:10517000114B124D1A689B88A060C4F81220E3827C
:1051800006AC0FCD0FC495E8030006AB40F606024F
:1051900084E8030001933946049B03980093334647
:1051A00002F0FCFD0446304603F002FB20460CB042
:1051B000BDE8F0816424F9E732E900088CEA0008D0
:1051C000F8B506460F461546FFF705FE0446A0B1A2
:1051D0000378012B26D0032B00F108038068286098
:1051E0009B88AB8007D106F065F941F288332061D6
:1051F0006361042323700020F8BD3046FFF757FE9B
:10520000054690B10A4A394647608461C465304614
:10521000FFF778FF06F04EF94FF47A7328616B615F
:1052200001232B7040F20320E6E76520E4E700BF8E
:105230002CE900082DE9F0470646002706F03AF968
:105240004EF660280546344606F57079DFF8CCA0A6
:1052500094F84033012B25D1D4E9D4321344EB1A0E
:10526000002B12DBD4F858330133022BC4F8583327
:1052700010D85246D4F844133046FFF743FF4FF49A
:105280007A73C4F85053C4F8543360344C45DFD1BA
:10529000BDE8F08704F550713046FFF7E4FD84F86F
:1052A0004073F2E7022B0DD1D4E9D4321344EB1A48
:1052B000002BEADB06F0FEF80323C4F8500384F861
:1052C0004033E2E7042B10D1D4E9D4321344EB1A73
:1052D000002BDADB04F55272D4F844133046FFF7A2
:1052E00011FF0523C4E9D458E9E7052BCDD1D4E952
:1052F000D4321344EB1A002BC7DBD4F858330133F4
:10530000012BC4F85833CAD804F55272D4F84413A8
:105310003046FFF7F7FEC4E9D458B6E72CE9000899
:105320002DE9F0478AB08A4691461F46804603F031
:105330008FFD03A905461C2002F0FAFD0646002851
:105340003ED0039903F05BFA0446012005F0FEFF0E
:1053500020804FF4006005F0F9FF062360800220F2
:1053600023710423637105F0F1FFB5F88830E08004
:10537000D5F88400A381A0603B68124DC4F81230B8
:10538000BB88C4F80EA0E382C4F8189004AC0FCD1B
:105390000FC495E8030004AB40F6060284E803005E
:1053A00001933946039B40460093334602F0F6FCD6
:1053B0000446304603F0FCF920460AB0BDE8F08709
:1053C0006424F9E78CEA000870B50D46D1F80E1098
:1053D000044601F02CF828B9D5F80E2002F0F003AD
:1053E000E02B15D170BDD4F894318B4215D1002A31
:1053F000F8D1204603F02CFD062200F1840105F1CE
:10540000080007F0E0FC0028ECD0C4F89C61E9E754
:1054100094F89861A969012EE5D005F108032046AA
:10542000BDE87040FFF77CBF1B2A70B505460C46EF
:105430001AD90B88B3F5807F16D14B88082B13D16E
:105440000E79062E10D14B79042B0DD190F898319E
:1054500053B1D4F80E20D5F89411914210D1012BFC
:1054600003D10123C5F89C3170BD03F0F1FC324635
:1054700000F1840104F1080007F0A5FC0028F0D138
:10548000A369D5F894219A42EED1E08805F05EFF39
:10549000012807D00228E7D121462846BDE8704000
:1054A000FFF77CBD21462846BDE87040FFF78CBF62
:1054B000F8B504460D461646076805F0FBFF0023C5
:1054C0002576A3622369C4E9080663B1064805F09E
:1054D000EBFF204623692A46394698470248BDE833
:1054E000F84005F0DCBFF8BDE811002038B50546EE
:1054F00003F08AFC0446084805F02BFF0346B4FB82
:10550000F0F000FB1344054805F023FF204405F0AC
:1055100020FF286038BD00BF0000FDFFA9FE01008C
:10552000D0E90023142101FB03230022C3F89421B6
:1055300083F89821C3E968227047000038B5044613
:10554000B0B1436905680BB1FFF7EAFF002323768A
:10555000E362E36863B1074805F0A6FF2046E3680D
:1055600029462A6E98470348BDE8384005F097BFA2
:1055700038BD00BFE81100202DE9F041214C224E3A
:10558000D0E9008505F044FF23683046D96807F06C
:10559000EBFB05F047FF05F03BFF23681B48D9688C
:1055A00007F0E2FB05F03EFF05F032FF2368002123
:1055B000DF68142303FB0585D5F8940100F0DCFCBB
:1055C00013490246384607F057FB05F02BFF05F05C
:1055D0001FFF23680021D5F8A001DF6800F0CCFC94
:1055E0000C490246384607F047FB05F01BFF05F063
:1055F0000FFF23683046D96807F0B6FBBDE8F041DD
:1056000005F010BF340000205BEC0008AEE6000897
:10561000C7E60008E3E60008F8B50446002873D0A2
:10562000D0E9006705F046FF237E0546002B40D1F8
:105630006369002B68D0336E002B65D014234FF6BE
:10564000FF72E06903FB0763C3F8A02105F081FE48
:105650000546594805F07DFE854220D204F11C0024
:10566000FFF744FF142300204FF47A7103FB076611
:10567000E369C6F894310123C6F89C0186F8983195
:1056800003F0D6FBE36A02460121092B84BF00F533
:105690006A4260322046BDE8F840FFF709BFE06982
:1056A00005F057FE0546454805F053FE8542D5D81E
:1056B000D8E7012B35D1142303FB0767D7F89C21CA
:1056C00062B12046FFF72CFFE36A0133E36204F185
:1056D0001C00FFF70BFF00221146DBE7D4E908317D
:1056E0000B44C31A002B0FDBA36A022B15D8E16908
:1056F0003046FFF7ADFCA36A25620133032BA3629A
:1057000003D14FF4FA636362F8BD4FF4FA614FF4CA
:105710007A7003F08DFB6062F6E7022187F898113A
:10572000B8E7022B1FD1D4E908321344C31A002B67
:10573000EADB234A3046E169FFF7E4FC4FF4FA6301
:1057400025626362A36A0133012BA362DCD9204680
:1057500000220321FFF7ACFE00232046E362BDE8F0
:10576000F840FFF709BF032B10D1142303FB076791
:10577000D7F89C31002BC7D0114A3046E169FFF7BA
:10578000C1FC00220421C7F89C2183E7042BBBD174
:10579000142303FB0766D6F89C211AB12046FFF7B5
:1057A000BFFE94E7206A2D1AA5F51C55103D002D6B
:1057B000AADB03216EE700BFA9FE0100A9FEFEFFE0
:1057C0002CE900082DE9F0478EB098460E461746A2
:1057D0000390104602F084FFA0EB080ABAF1070F0D
:1057E00065D94146384603F00AF8814600285ED064
:1057F0007168039800F01BFE20B9736803F0F00293
:10580000E02A0CD1039BD3F88C31002B4FD008AA8F
:10581000316803A800F0A6FE002848D1089B04A91F
:105820000820059302F034FD054600283FD0049976
:1058300002F0E5FF0023044608F108020370394630
:1058400043708370C370B9F804308380B9F80630B0
:10585000C380AAF10803284602F0E5FF20BB2846D2
:1058600002F03EFF0499471A28463A4602F0BFFC70
:1058700033686080B8B206934FF480730D4E08AC65
:10588000ADF81C3005F062FDADF81E000FCE0FC460
:1058900096E8030008AB2A4684E80300009305A9B4
:1058A000049B039800F014FB284602F081FF0EB021
:1058B000BDE8F0878CEA00082DE9F0471D468046D8
:1058C00010468946144602F00BFF471B032F16D9DA
:1058D0002946204602F093FF064680B13A46294603
:1058E000204602F084FC50B93378082B07D12B46B0
:1058F000224649464046BDE8F047FFF763BFBDE892
:10590000F08700002DE9F04F91B007468B46DDE9A6
:105910001A89CDE90323404602F0E2FEA0EB090418
:10592000132C6FD94946404602F069FF064600280D
:105930006BD00169384600F07AFD8246002867D1B5
:10594000336903F0F003E02B62D0337806A9082016
:1059500003F00F0302339B00A34228BF23460593A5
:1059600002F096FC0546002855D0069902F047FF44
:10597000039B414680F800B043700446049B4A46AE
:1059800080F802A0037180F803A080F805A080F8D9
:1059900006A080F807A02846059B02F044FF804639
:1059A00048BB284602F09CFE0699A0EB0108284659
:1059B000424602F01CFC608033691FFA88F00AAC92
:1059C0000793F368154E08934FF48073ADF82430B5
:1059D00005F0BCFCADF826000FCE0FC496E803001E
:1059E0000AAB2A4684E80300009307A9069B3846C1
:1059F00000F06EFA8046284602F0DAFE404611B00A
:105A0000BDE8F08F4FF0EC08F8E74FF00108F5E73C
:105A10004FF0E408F2E74FF06408EFE78CEA000883
:105A200038B5044603F015FA05464FF4DE7200213E
:105A300004F5C27007F0FDF96B6B002550225B681E
:105A400004F5D8702946A4F89051C4F88431012394
:105A5000C4F8A851C4F8AC51C4E9625307F0E9F99D
:105A60004FF4A072294604F5007007F0E2F92846C9
:105A700038BD000070B50C4616460546B0B1B9B940
:105A800002F0F003E02B16D00C4805F008FD002EC4
:105A90000A4814BF02230023C5F89461C5F89C414D
:105AA00085F8983105F000FD204670BD0220FCE726
:105AB0004FF48370F9E7E420F7E700BFE811002016
:105AC0000A460021FFF7D6BF70B50C4616460546BC
:105AD00050B159B9074805F0E2FC0648C5F8A06185
